{
  "_format": "hh-sol-artifact-1",
  "contractName": "Suyaa",
  "sourceName": "contracts/Suyaa.sol",
  "abi": [
    {
      "inputs": [],
      "stateMutability": "nonpayable",
      "type": "constructor"
    },
    {
      "anonymous": false,
      "inputs": [
        {
          "indexed": true,
          "internalType": "address",
          "name": "owner",
          "type": "address"
        },
        {
          "indexed": true,
          "internalType": "address",
          "name": "spender",
          "type": "address"
        },
        {
          "indexed": false,
          "internalType": "uint256",
          "name": "value",
          "type": "uint256"
        }
      ],
      "name": "Approval",
      "type": "event"
    },
    {
      "anonymous": false,
      "inputs": [
        {
          "indexed": true,
          "internalType": "address",
          "name": "previousOwner",
          "type": "address"
        },
        {
          "indexed": true,
          "internalType": "address",
          "name": "newOwner",
          "type": "address"
        }
      ],
      "name": "OwnershipTransferred",
      "type": "event"
    },
    {
      "anonymous": false,
      "inputs": [
        {
          "indexed": true,
          "internalType": "address",
          "name": "from",
          "type": "address"
        },
        {
          "indexed": true,
          "internalType": "address",
          "name": "to",
          "type": "address"
        },
        {
          "indexed": false,
          "internalType": "uint256",
          "name": "value",
          "type": "uint256"
        }
      ],
      "name": "Transfer",
      "type": "event"
    },
    {
      "inputs": [
        {
          "internalType": "address",
          "name": "owner",
          "type": "address"
        },
        {
          "internalType": "address",
          "name": "spender",
          "type": "address"
        }
      ],
      "name": "allowance",
      "outputs": [
        {
          "internalType": "uint256",
          "name": "",
          "type": "uint256"
        }
      ],
      "stateMutability": "view",
      "type": "function"
    },
    {
      "inputs": [
        {
          "internalType": "address",
          "name": "spender",
          "type": "address"
        },
        {
          "internalType": "uint256",
          "name": "amount",
          "type": "uint256"
        }
      ],
      "name": "approve",
      "outputs": [
        {
          "internalType": "bool",
          "name": "",
          "type": "bool"
        }
      ],
      "stateMutability": "nonpayable",
      "type": "function"
    },
    {
      "inputs": [
        {
          "internalType": "address",
          "name": "account",
          "type": "address"
        }
      ],
      "name": "balanceOf",
      "outputs": [
        {
          "internalType": "uint256",
          "name": "",
          "type": "uint256"
        }
      ],
      "stateMutability": "view",
      "type": "function"
    },
    {
      "inputs": [
        {
          "internalType": "uint256",
          "name": "amount",
          "type": "uint256"
        }
      ],
      "name": "burn",
      "outputs": [],
      "stateMutability": "nonpayable",
      "type": "function"
    },
    {
      "inputs": [],
      "name": "cap",
      "outputs": [
        {
          "internalType": "uint256",
          "name": "",
          "type": "uint256"
        }
      ],
      "stateMutability": "view",
      "type": "function"
    },
    {
      "inputs": [],
      "name": "decimals",
      "outputs": [
        {
          "internalType": "uint8",
          "name": "",
          "type": "uint8"
        }
      ],
      "stateMutability": "view",
      "type": "function"
    },
    {
      "inputs": [
        {
          "internalType": "address",
          "name": "spender",
          "type": "address"
        },
        {
          "internalType": "uint256",
          "name": "subtractedValue",
          "type": "uint256"
        }
      ],
      "name": "decreaseAllowance",
      "outputs": [
        {
          "internalType": "bool",
          "name": "",
          "type": "bool"
        }
      ],
      "stateMutability": "nonpayable",
      "type": "function"
    },
    {
      "inputs": [
        {
          "internalType": "address",
          "name": "spender",
          "type": "address"
        },
        {
          "internalType": "uint256",
          "name": "addedValue",
          "type": "uint256"
        }
      ],
      "name": "increaseAllowance",
      "outputs": [
        {
          "internalType": "bool",
          "name": "",
          "type": "bool"
        }
      ],
      "stateMutability": "nonpayable",
      "type": "function"
    },
    {
      "inputs": [
        {
          "internalType": "address",
          "name": "account",
          "type": "address"
        },
        {
          "internalType": "uint256",
          "name": "amount",
          "type": "uint256"
        }
      ],
      "name": "mint",
      "outputs": [],
      "stateMutability": "nonpayable",
      "type": "function"
    },
    {
      "inputs": [],
      "name": "name",
      "outputs": [
        {
          "internalType": "string",
          "name": "",
          "type": "string"
        }
      ],
      "stateMutability": "view",
      "type": "function"
    },
    {
      "inputs": [],
      "name": "owner",
      "outputs": [
        {
          "internalType": "address",
          "name": "",
          "type": "address"
        }
      ],
      "stateMutability": "view",
      "type": "function"
    },
    {
      "inputs": [],
      "name": "renounceOwnership",
      "outputs": [],
      "stateMutability": "nonpayable",
      "type": "function"
    },
    {
      "inputs": [],
      "name": "symbol",
      "outputs": [
        {
          "internalType": "string",
          "name": "",
          "type": "string"
        }
      ],
      "stateMutability": "view",
      "type": "function"
    },
    {
      "inputs": [],
      "name": "totalSupply",
      "outputs": [
        {
          "internalType": "uint256",
          "name": "",
          "type": "uint256"
        }
      ],
      "stateMutability": "view",
      "type": "function"
    },
    {
      "inputs": [
        {
          "internalType": "address",
          "name": "to",
          "type": "address"
        },
        {
          "internalType": "uint256",
          "name": "amount",
          "type": "uint256"
        }
      ],
      "name": "transfer",
      "outputs": [
        {
          "internalType": "bool",
          "name": "",
          "type": "bool"
        }
      ],
      "stateMutability": "nonpayable",
      "type": "function"
    },
    {
      "inputs": [
        {
          "internalType": "address",
          "name": "from",
          "type": "address"
        },
        {
          "internalType": "address",
          "name": "to",
          "type": "address"
        },
        {
          "internalType": "uint256",
          "name": "amount",
          "type": "uint256"
        }
      ],
      "name": "transferFrom",
      "outputs": [
        {
          "internalType": "bool",
          "name": "",
          "type": "bool"
        }
      ],
      "stateMutability": "nonpayable",
      "type": "function"
    },
    {
      "inputs": [
        {
          "internalType": "address",
          "name": "newOwner",
          "type": "address"
        }
      ],
      "name": "transferOwnership",
      "outputs": [],
      "stateMutability": "nonpayable",
      "type": "function"
    }
  ],
  "bytecode": "0x60a06040523480156200001157600080fd5b506b033b2e3c9fd0803ce80000006040518060400160405280600581526020017f53757961610000000000000000000000000000000000000000000000000000008152506040518060400160405280600381526020017f53594100000000000000000000000000000000000000000000000000000000008152508160039080519060200190620000a39291906200031d565b508060049080519060200190620000bc9291906200031d565b5050506000811162000105576040517f08c379a0000000000000000000000000000000000000000000000000000000008152600401620000fc906200047a565b60405180910390fd5b8060808181525050506200012e620001226200018060201b60201c565b6200018860201b60201c565b6200017a6040518060400160405280601581526020017f436f6e7472616374206465706c6f7965642062793a0000000000000000000000815250336200024e60201b620007af1760201c565b620005c1565b600033905090565b6000600560009054906101000a900473ffffffffffffffffffffffffffffffffffffffff16905081600560006101000a81548173ffffffffffffffffffffffffffffffffffffffff021916908373ffffffffffffffffffffffffffffffffffffffff1602179055508173ffffffffffffffffffffffffffffffffffffffff168173ffffffffffffffffffffffffffffffffffffffff167f8be0079c531659141344cd1fd0a4f28419497f9722a3daafe3b4186f6b6457e060405160405180910390a35050565b620002f082826040516024016200026792919062000446565b6040516020818303038152906040527f319af333000000000000000000000000000000000000000000000000000000007bffffffffffffffffffffffffffffffffffffffffffffffffffffffff19166020820180517bffffffffffffffffffffffffffffffffffffffffffffffffffffffff8381831617835250505050620002f460201b60201c565b5050565b60008151905060006a636f6e736f6c652e6c6f679050602083016000808483855afa5050505050565b8280546200032b9062000522565b90600052602060002090601f0160209004810192826200034f57600085556200039b565b82601f106200036a57805160ff19168380011785556200039b565b828001600101855582156200039b579182015b828111156200039a5782518255916020019190600101906200037d565b5b509050620003aa9190620003ae565b5090565b5b80821115620003c9576000816000905550600101620003af565b5090565b620003d881620004b8565b82525050565b6000620003eb826200049c565b620003f78185620004a7565b935062000409818560208601620004ec565b620004148162000587565b840191505092915050565b60006200042e601583620004a7565b91506200043b8262000598565b602082019050919050565b60006040820190508181036000830152620004628185620003de565b9050620004736020830184620003cd565b9392505050565b6000602082019050818103600083015262000495816200041f565b9050919050565b600081519050919050565b600082825260208201905092915050565b6000620004c582620004cc565b9050919050565b600073ffffffffffffffffffffffffffffffffffffffff82169050919050565b60005b838110156200050c578082015181840152602081019050620004ef565b838111156200051c576000848401525b50505050565b600060028204905060018216806200053b57607f821691505b6020821081141562000552576200055162000558565b5b50919050565b7f4e487b7100000000000000000000000000000000000000000000000000000000600052602260045260246000fd5b6000601f19601f8301169050919050565b7f45524332304361707065643a2063617020697320300000000000000000000000600082015250565b608051611dbe620005dd600039600061046d0152611dbe6000f3fe608060405234801561001057600080fd5b506004361061010b5760003560e01c806342966c68116100a257806395d89b411161007157806395d89b41146102a8578063a457c2d7146102c6578063a9059cbb146102f6578063dd62ed3e14610326578063f2fde38b146103565761010b565b806342966c681461023457806370a0823114610250578063715018a6146102805780638da5cb5b1461028a5761010b565b8063313ce567116100de578063313ce567146101ac578063355274ea146101ca57806339509351146101e857806340c10f19146102185761010b565b806306fdde0314610110578063095ea7b31461012e57806318160ddd1461015e57806323b872dd1461017c575b600080fd5b610118610372565b60405161012591906115f8565b60405180910390f35b61014860048036038101906101439190611321565b610404565b60405161015591906115dd565b60405180910390f35b610166610427565b60405161017391906117ea565b60405180910390f35b610196600480360381019061019191906112d2565b610431565b6040516101a391906115dd565b60405180910390f35b6101b4610460565b6040516101c19190611805565b60405180910390f35b6101d2610469565b6040516101df91906117ea565b60405180910390f35b61020260048036038101906101fd9190611321565b610491565b60405161020f91906115dd565b60405180910390f35b610232600480360381019061022d9190611321565b6104c8565b005b61024e6004803603810190610249919061135d565b6104de565b005b61026a6004803603810190610265919061126d565b6104f2565b60405161027791906117ea565b60405180910390f35b61028861053a565b005b61029261054e565b60405161029f91906115c2565b60405180910390f35b6102b0610578565b6040516102bd91906115f8565b60405180910390f35b6102e060048036038101906102db9190611321565b61060a565b6040516102ed91906115dd565b60405180910390f35b610310600480360381019061030b9190611321565b610681565b60405161031d91906115dd565b60405180910390f35b610340600480360381019061033b9190611296565b6106a4565b60405161034d91906117ea565b60405180910390f35b610370600480360381019061036b919061126d565b61072b565b005b6060600380546103819061194e565b80601f01602080910402602001604051908101604052809291908181526020018280546103ad9061194e565b80156103fa5780601f106103cf576101008083540402835291602001916103fa565b820191906000526020600020905b8154815290600101906020018083116103dd57829003601f168201915b5050505050905090565b60008061040f61084b565b905061041c818585610853565b600191505092915050565b6000600254905090565b60008061043c61084b565b9050610449858285610a1e565b610454858585610aaa565b60019150509392505050565b60006012905090565b60007f0000000000000000000000000000000000000000000000000000000000000000905090565b60008061049c61084b565b90506104bd8185856104ae85896106a4565b6104b8919061183c565b610853565b600191505092915050565b6104d0610d2b565b6104da8282610da9565b5050565b6104ef6104e961084b565b82610e13565b50565b60008060008373ffffffffffffffffffffffffffffffffffffffff1673ffffffffffffffffffffffffffffffffffffffff168152602001908152602001600020549050919050565b610542610d2b565b61054c6000610fea565b565b6000600560009054906101000a900473ffffffffffffffffffffffffffffffffffffffff16905090565b6060600480546105879061194e565b80601f01602080910402602001604051908101604052809291908181526020018280546105b39061194e565b80156106005780601f106105d557610100808354040283529160200191610600565b820191906000526020600020905b8154815290600101906020018083116105e357829003601f168201915b5050505050905090565b60008061061561084b565b9050600061062382866106a4565b905083811015610668576040517f08c379a000000000000000000000000000000000000000000000000000000000815260040161065f906117aa565b60405180910390fd5b6106758286868403610853565b60019250505092915050565b60008061068c61084b565b9050610699818585610aaa565b600191505092915050565b6000600160008473ffffffffffffffffffffffffffffffffffffffff1673ffffffffffffffffffffffffffffffffffffffff16815260200190815260200160002060008373ffffffffffffffffffffffffffffffffffffffff1673ffffffffffffffffffffffffffffffffffffffff16815260200190815260200160002054905092915050565b610733610d2b565b600073ffffffffffffffffffffffffffffffffffffffff168173ffffffffffffffffffffffffffffffffffffffff1614156107a3576040517f08c379a000000000000000000000000000000000000000000000000000000000815260040161079a9061168a565b60405180910390fd5b6107ac81610fea565b50565b61084782826040516024016107c592919061161a565b6040516020818303038152906040527f319af333000000000000000000000000000000000000000000000000000000007bffffffffffffffffffffffffffffffffffffffffffffffffffffffff19166020820180517bffffffffffffffffffffffffffffffffffffffffffffffffffffffff83818316178352505050506110b0565b5050565b600033905090565b600073ffffffffffffffffffffffffffffffffffffffff168373ffffffffffffffffffffffffffffffffffffffff1614156108c3576040517f08c379a00000000000000000000000000000000000000000000000000000000081526004016108ba9061178a565b60405180910390fd5b600073ffffffffffffffffffffffffffffffffffffffff168273ffffffffffffffffffffffffffffffffffffffff161415610933576040517f08c379a000000000000000000000000000000000000000000000000000000000815260040161092a906116aa565b60405180910390fd5b80600160008573ffffffffffffffffffffffffffffffffffffffff1673ffffffffffffffffffffffffffffffffffffffff16815260200190815260200160002060008473ffffffffffffffffffffffffffffffffffffffff1673ffffffffffffffffffffffffffffffffffffffff168152602001908152602001600020819055508173ffffffffffffffffffffffffffffffffffffffff168373ffffffffffffffffffffffffffffffffffffffff167f8c5be1e5ebec7d5bd14f71427d1e84f3dd0314c0f7b2291e5b200ac8c7c3b92583604051610a1191906117ea565b60405180910390a3505050565b6000610a2a84846106a4565b90507fffffffffffffffffffffffffffffffffffffffffffffffffffffffffffffffff8114610aa45781811015610a96576040517f08c379a0000000000000000000000000000000000000000000000000000000008152600401610a8d906116ca565b60405180910390fd5b610aa38484848403610853565b5b50505050565b600073ffffffffffffffffffffffffffffffffffffffff168373ffffffffffffffffffffffffffffffffffffffff161415610b1a576040517f08c379a0000000000000000000000000000000000000000000000000000000008152600401610b119061174a565b60405180910390fd5b600073ffffffffffffffffffffffffffffffffffffffff168273ffffffffffffffffffffffffffffffffffffffff161415610b8a576040517f08c379a0000000000000000000000000000000000000000000000000000000008152600401610b819061164a565b60405180910390fd5b610b958383836110d9565b60008060008573ffffffffffffffffffffffffffffffffffffffff1673ffffffffffffffffffffffffffffffffffffffff16815260200190815260200160002054905081811015610c1b576040517f08c379a0000000000000000000000000000000000000000000000000000000008152600401610c12906116ea565b60405180910390fd5b8181036000808673ffffffffffffffffffffffffffffffffffffffff1673ffffffffffffffffffffffffffffffffffffffff16815260200190815260200160002081905550816000808573ffffffffffffffffffffffffffffffffffffffff1673ffffffffffffffffffffffffffffffffffffffff1681526020019081526020016000206000828254610cae919061183c565b925050819055508273ffffffffffffffffffffffffffffffffffffffff168473ffffffffffffffffffffffffffffffffffffffff167fddf252ad1be2c89b69c2b068fc378daa952ba7f163c4a11628f55a4df523b3ef84604051610d1291906117ea565b60405180910390a3610d258484846110de565b50505050565b610d3361084b565b73ffffffffffffffffffffffffffffffffffffffff16610d5161054e565b73ffffffffffffffffffffffffffffffffffffffff1614610da7576040517f08c379a0000000000000000000000000000000000000000000000000000000008152600401610d9e9061170a565b60405180910390fd5b565b610db1610469565b81610dba610427565b610dc4919061183c565b1115610e05576040517f08c379a0000000000000000000000000000000000000000000000000000000008152600401610dfc9061176a565b60405180910390fd5b610e0f82826110e3565b5050565b600073ffffffffffffffffffffffffffffffffffffffff168273ffffffffffffffffffffffffffffffffffffffff161415610e83576040517f08c379a0000000000000000000000000000000000000000000000000000000008152600401610e7a9061172a565b60405180910390fd5b610e8f826000836110d9565b60008060008473ffffffffffffffffffffffffffffffffffffffff1673ffffffffffffffffffffffffffffffffffffffff16815260200190815260200160002054905081811015610f15576040517f08c379a0000000000000000000000000000000000000000000000000000000008152600401610f0c9061166a565b60405180910390fd5b8181036000808573ffffffffffffffffffffffffffffffffffffffff1673ffffffffffffffffffffffffffffffffffffffff168152602001908152602001600020819055508160026000828254610f6c9190611892565b92505081905550600073ffffffffffffffffffffffffffffffffffffffff168373ffffffffffffffffffffffffffffffffffffffff167fddf252ad1be2c89b69c2b068fc378daa952ba7f163c4a11628f55a4df523b3ef84604051610fd191906117ea565b60405180910390a3610fe5836000846110de565b505050565b6000600560009054906101000a900473ffffffffffffffffffffffffffffffffffffffff16905081600560006101000a81548173ffffffffffffffffffffffffffffffffffffffff021916908373ffffffffffffffffffffffffffffffffffffffff1602179055508173ffffffffffffffffffffffffffffffffffffffff168173ffffffffffffffffffffffffffffffffffffffff167f8be0079c531659141344cd1fd0a4f28419497f9722a3daafe3b4186f6b6457e060405160405180910390a35050565b60008151905060006a636f6e736f6c652e6c6f679050602083016000808483855afa5050505050565b505050565b505050565b600073ffffffffffffffffffffffffffffffffffffffff168273ffffffffffffffffffffffffffffffffffffffff161415611153576040517f08c379a000000000000000000000000000000000000000000000000000000000815260040161114a906117ca565b60405180910390fd5b61115f600083836110d9565b8060026000828254611171919061183c565b92505081905550806000808473ffffffffffffffffffffffffffffffffffffffff1673ffffffffffffffffffffffffffffffffffffffff16815260200190815260200160002060008282546111c6919061183c565b925050819055508173ffffffffffffffffffffffffffffffffffffffff16600073ffffffffffffffffffffffffffffffffffffffff167fddf252ad1be2c89b69c2b068fc378daa952ba7f163c4a11628f55a4df523b3ef8360405161122b91906117ea565b60405180910390a361123f600083836110de565b5050565b60008135905061125281611d5a565b92915050565b60008135905061126781611d71565b92915050565b60006020828403121561127f57600080fd5b600061128d84828501611243565b91505092915050565b600080604083850312156112a957600080fd5b60006112b785828601611243565b92505060206112c885828601611243565b9150509250929050565b6000806000606084860312156112e757600080fd5b60006112f586828701611243565b935050602061130686828701611243565b925050604061131786828701611258565b9150509250925092565b6000806040838503121561133457600080fd5b600061134285828601611243565b925050602061135385828601611258565b9150509250929050565b60006020828403121561136f57600080fd5b600061137d84828501611258565b91505092915050565b61138f816118c6565b82525050565b61139e816118d8565b82525050565b60006113af82611820565b6113b9818561182b565b93506113c981856020860161191b565b6113d2816119de565b840191505092915050565b60006113ea60238361182b565b91506113f5826119ef565b604082019050919050565b600061140d60228361182b565b915061141882611a3e565b604082019050919050565b600061143060268361182b565b915061143b82611a8d565b604082019050919050565b600061145360228361182b565b915061145e82611adc565b604082019050919050565b6000611476601d8361182b565b915061148182611b2b565b602082019050919050565b600061149960268361182b565b91506114a482611b54565b604082019050919050565b60006114bc60208361182b565b91506114c782611ba3565b602082019050919050565b60006114df60218361182b565b91506114ea82611bcc565b604082019050919050565b600061150260258361182b565b915061150d82611c1b565b604082019050919050565b600061152560198361182b565b915061153082611c6a565b602082019050919050565b600061154860248361182b565b915061155382611c93565b604082019050919050565b600061156b60258361182b565b915061157682611ce2565b604082019050919050565b600061158e601f8361182b565b915061159982611d31565b602082019050919050565b6115ad81611904565b82525050565b6115bc8161190e565b82525050565b60006020820190506115d76000830184611386565b92915050565b60006020820190506115f26000830184611395565b92915050565b6000602082019050818103600083015261161281846113a4565b905092915050565b6000604082019050818103600083015261163481856113a4565b90506116436020830184611386565b9392505050565b60006020820190508181036000830152611663816113dd565b9050919050565b6000602082019050818103600083015261168381611400565b9050919050565b600060208201905081810360008301526116a381611423565b9050919050565b600060208201905081810360008301526116c381611446565b9050919050565b600060208201905081810360008301526116e381611469565b9050919050565b600060208201905081810360008301526117038161148c565b9050919050565b60006020820190508181036000830152611723816114af565b9050919050565b60006020820190508181036000830152611743816114d2565b9050919050565b60006020820190508181036000830152611763816114f5565b9050919050565b6000602082019050818103600083015261178381611518565b9050919050565b600060208201905081810360008301526117a38161153b565b9050919050565b600060208201905081810360008301526117c38161155e565b9050919050565b600060208201905081810360008301526117e381611581565b9050919050565b60006020820190506117ff60008301846115a4565b92915050565b600060208201905061181a60008301846115b3565b92915050565b600081519050919050565b600082825260208201905092915050565b600061184782611904565b915061185283611904565b9250827fffffffffffffffffffffffffffffffffffffffffffffffffffffffffffffffff0382111561188757611886611980565b5b828201905092915050565b600061189d82611904565b91506118a883611904565b9250828210156118bb576118ba611980565b5b828203905092915050565b60006118d1826118e4565b9050919050565b60008115159050919050565b600073ffffffffffffffffffffffffffffffffffffffff82169050919050565b6000819050919050565b600060ff82169050919050565b60005b8381101561193957808201518184015260208101905061191e565b83811115611948576000848401525b50505050565b6000600282049050600182168061196657607f821691505b6020821081141561197a576119796119af565b5b50919050565b7f4e487b7100000000000000000000000000000000000000000000000000000000600052601160045260246000fd5b7f4e487b7100000000000000000000000000000000000000000000000000000000600052602260045260246000fd5b6000601f19601f8301169050919050565b7f45524332303a207472616e7366657220746f20746865207a65726f206164647260008201527f6573730000000000000000000000000000000000000000000000000000000000602082015250565b7f45524332303a206275726e20616d6f756e7420657863656564732062616c616e60008201527f6365000000000000000000000000000000000000000000000000000000000000602082015250565b7f4f776e61626c653a206e6577206f776e657220697320746865207a65726f206160008201527f6464726573730000000000000000000000000000000000000000000000000000602082015250565b7f45524332303a20617070726f766520746f20746865207a65726f20616464726560008201527f7373000000000000000000000000000000000000000000000000000000000000602082015250565b7f45524332303a20696e73756666696369656e7420616c6c6f77616e6365000000600082015250565b7f45524332303a207472616e7366657220616d6f756e742065786365656473206260008201527f616c616e63650000000000000000000000000000000000000000000000000000602082015250565b7f4f776e61626c653a2063616c6c6572206973206e6f7420746865206f776e6572600082015250565b7f45524332303a206275726e2066726f6d20746865207a65726f2061646472657360008201527f7300000000000000000000000000000000000000000000000000000000000000602082015250565b7f45524332303a207472616e736665722066726f6d20746865207a65726f20616460008201527f6472657373000000000000000000000000000000000000000000000000000000602082015250565b7f45524332304361707065643a2063617020657863656564656400000000000000600082015250565b7f45524332303a20617070726f76652066726f6d20746865207a65726f2061646460008201527f7265737300000000000000000000000000000000000000000000000000000000602082015250565b7f45524332303a2064656372656173656420616c6c6f77616e63652062656c6f7760008201527f207a65726f000000000000000000000000000000000000000000000000000000602082015250565b7f45524332303a206d696e7420746f20746865207a65726f206164647265737300600082015250565b611d63816118c6565b8114611d6e57600080fd5b50565b611d7a81611904565b8114611d8557600080fd5b5056fea2646970667358221220dcbaabf5ad6b3bb75d876787d6bf5b04b1fde69eaa6ca92e25a361e3575baa1364736f6c63430008040033",
  "linkReferences": {},
  "deployedLinkReferences": {}
}